:03004300028B002D
:03005300028B809D
:108B0000028F1300028F8900028F7300028F2B00E7
:108B1000028F9F00028AFF00029036000290370009
:108B2000029038000290390002903A00028F430010
:108B300002903B0002903C0002903D00028F5B00DF
:108B400002903E0002903F000290400002904100DF
:088B5000029042000290430074
:108B80000290440002904500029047000290460087
:108B9000029048000290490002904A0002904B0067
:108BA00002904C0002904D0002904E0002904F0047
:0B8BB000029050000290510002905211
:10869B00E4F52DF52CF52BF52AC209C206C208C24A
:1086AB00071289E87E8C7FB88E198F1A751B8C7513
:1086BB001CCA751D8C751EF8EE54E070030287A75B
:1086CB00752E00752F808E308F31C3741E9FFF74F3
:1086DB008D9ECF2402CF3400FEE48F298E28F52700
:1086EB00F526F525F524F523F522AF29AE28AD2780
:1086FB00AC26AB25AA24A923A822C31289B75026DE
:10870B00E52F2525F582E52E3524F58374CDF0E58F
:10871B00252401F525E43524F524E43523F523E45C
:10872B003522F52280C4E4F525F524F523F522AF97
:10873B0029AE28AD27AC26AB25AA24A923A822C392
:10874B001289B75031AE24AF25E5312FF582E530D4
:10875B003EF583E0FDE52F2FF582E52E3EF583ED0B
:10876B00F0EF2401F525E43EF524E43523F523E46D
:10877B003522F52280B9852E19852F1A74B82480DD
:10878B00FF748C34FFFEC3E51C9FF51CE51B9EF5A7
:10879B001BC3E51E9FF51EE51D9EF51DD2E843D8B4
:1087AB0020907F95E044C0F0907FAFE04401F090C3
:1087BB007FAEE0441DF0D2AF200741200705D20A5F
:1087CB00128D7EE4F52DF52CF52BF52A7F407E924C
:1087DB007D047C00AB2DAA2CA92BA82AC31289B728
:1087EB0050D62007D3E52D2401F52DE4352CF52C9F
:1087FB00E4352BF52BE4352AF52A80D0538EF8304F
:10880B000705128000C20730091A128FFF5015C2DC
:10881B0009128EB9200607907FD6E020E7F3128E5F
:10882B00F9128AFD20AC1030980DE59964A560040F
:0C883B00C298800312846E1284B080C3C7
:10800000907FE9E070030281731470030281DE2423
:10801000FE700302824524FB700302816D1470031D
:1080200002816714700302815B1470030281612472
:1080300005600302828A12902C4003028296907F90
:10804000EBE024FE601414603924026003028158BE
:10805000E519907FD4F0E51A801E907FEAE0FF12C8
:108060008DCFAA06A9077B018B328A338934EA496E
:10807000600DEE907FD4F0EF907FD5F002829602F3
:10808000828F907FEAE0FF128E42AA06A9077B0149
:0D8090008B328A338934EA4970030281552E
:10809D00AB328B398A3A893B12893DF53C907FEEA4
:1080AD00E0FFE53CD39F4003E0F53CE53C70030267
:1080BD00814AE4F538F537F536F535E53CC394409E
:1080CD005004AF3C80027F40E4FCFDFEAB38AA3784
:1080DD00A936A835C31289B75032E53B2538F5824C
:1080ED00E53A3537F583E0FF74002538F582E43441
:1080FD007FF583EFF0E5382401F538E43537F537B2
:10810D00E43536F536E43535F53580AFE53CC394C9
:10811D00405004AF3C80027F40907FB5EFF0E53CCE
:10812D00C394405004AF3C80027F40C3E53C9FF5B3
:10813D003C907FB4E020E2030280B880F4E4907FAD
:05814D00B5F0907FB4C5
:108152000281D502828F02828F128FDC02829612F6
:108162009020028296129018028296128AEF028260
:108172009612902E4003028296907FE8E0247F6060
:108182001F14602824027051A206E43325E0FFA2E6
:1081920008E4334F907F00F0E4A3F0907FB5803382
:1081A200E4907F00F0A3F0907FB58027907FECE011
:1081B200F45480C4540FFFE054072F25E024B4F593
:1081C20082E4347FF583E05401907F00F0E4A3F071
:1081D200907FB57402F002829602828F1290304034
:1081E20003028296907FE8E024FE60162402600378
:1081F200028296907FEAE0B40105C20602829602EC
:10820200828F907FEAE07039907FECE0F45480C472
:10821200540FFFE054072F25E024B4F582E4347FA5
:10822200F583E4F0907FECE05480131313541FFFA6
:08823200E054072F907FD7F004
:03823A00E4F5392F
:10823D00E04420F08053804A129032504C907FE8F9
:10824D00E024FE601124027040907FEAE0B4010446
:10825D00D2068035802C907FEAE0701F907FECE095
:10826D00F45480C4540FFFE054072F25E024B4F5D7
:10827D0082E4347FF5837401F0800E800512903412
:10828D005007907FB4E04401F0907FB4E04402F0D9
:01829D0022BE
:0300330002902810
:0490280053D8EF32F8
:0B8FEA00430063006365312C310D0073
:108FCA000514FF525A56FFC102040A00000000C1EC
:018FDA000393
:1089E800907FDE7414F0907FDFF0907FADE0440458
:1089F800F0E04410F0907FDD7403F0E4907F96F08F
:108A0800907F97F0907F98F0907841F0907845F0BB
:108A1800907F9C7410F0E4907F9DF0907F9E74345A
:108A2800F0E4907843F09078477438F090784A747E
:108A380003F0907F9474FFF0907F957443F0E49076
:108A4800784BF090784CE0E4F0907F98E04410F098
:108A5800907845E054DFF0E490780AF0907818F0C8
:108A680090781C7420F090781D7401F0907802744E
:108A780081F090780374A0F0E4907810F090781169
:108A8800F0907807F0907808F0907815F0907816C4
:108A98007481F0E490780BF0907819F090780C7469
:108AA800FFF090781AF0E490781EF0F5A8F5B8F584
:108AB80091F5D8F5E8F5F8907F92F0758933F58847
:108AC800F5C8907845E04420F0128E97E4F510F54B
:108AD80009F512F511D201C200F50EF50FC205C253
:078AE80004128EDA028FF583
:1084B000300411907FADE054FBF0128D20907FAD21
:1084C000E04404F0300303028C47907801E070032D
:1084D00002862C907FB8E030E10302862C907FBCAE
:1084E000E030E10302862C300156907800E0F5324E
:1084F000645A600302869A907801E0C394035005A1
:10850000128FF580F2907800E06456600302869A3C
:10851000C201907800E0F532C4540FF510E5321333
:108520001313541F139200E0FD750E0085320FE502
:108530000F750F00F50EAF05ED420F530E07C20188
:10854000E51024FD601704704875330175347D759E
:10855000350075360175377F7538BD804630051D8D
:1085600075330175347D75350075360175377F7546
:1085700038BDE4F50DF50CF50BF50A8026753300D2
:108580007534007535397536007537007538798062
:108590001275330175347E75350075360175377F78
:1085A0007538B9907800E0AB33AA34A935AE11051F
:1085B000118E827583001289950509E511B4401E5C
:1085C000AB36AA37A9387440128983E4F511E5095E
:1085D000650F7002E50E600302869AD2022290783F
:1085E00001E0600FC3E509950FE50E6480F8748023
:1085F0009840B0907801E07003128FF5C3E50995BB
:108600000FE50E6480F8748098500302869AD201B8
:10861000E4F509F50EF50F20000302869AAB36AAA1
:1086200037A938E511128983E4F5112230022D9023
:108630007FB8E020E1F9907FBCE020E1F2D201E4D4
:10864000F509F50EF50FAB33AA34A935128983ABC2
:1086500036AA37A93804128983C2022230053B901A
:108660007FBCE020E134780A1289C8E47B107A27C5
:10867000F9F8C31289B7502278007C7D7D017B0018
:108680007A0079147E007F05128917907FBD7405EA
:0A869000F0E4F50DF50CF50BF50A0A
:01869A0022BD
:0A8FF5001290087EAA7FBB029010C4
:108D2000907FC9E0C39512F57A129008907FC8E051
:108D300020E14890780FE0FFC374409FC3957A50BC
:108D400009E0FFC374409FFF8002AF7AE4FEEEC3E8
:108D50009F5014E5122E24C0F582E4347DF583E0A3
:108D600090780EF00E80E7EFB57A0BE4907FC9F0B3
:0E8D7000C204F5128005EF2512F512029010D4
:068E11008B7A8A7B897C4C
:108E1700129008AB7AAA7BA97C128FB5E4FEEEC349
:108E27009F5015AB7AAA7BA97C8E82758300128925
:0B8E37005690780EF00E80E6029010BE
:08900800907F98E04420F02263
:08901000907F98E054DFF0228C
:108EDA00907801E06008907800E0F57A80F2128FCD
:0E8EEA00F57F327E00128E6E907801E070E20D
:018EF8002257
:108C4700907FCCE020E169907CC0E0FF24F56018BC
:108C57001460391460432403704F128EDA7BFF7A55
:108C67008F79EA128E1180417BFF7A8F79EC128E11
:108C770011128EC9128EDAD201E4F509F50EF50F3D
:108C8700F511907FBCF0907FB8F0801D7BFF7A8F45
:108C970079EE128E11D2058010C205128EDAD2013A
:108CA700E4F509F50EF50FF511E4907FCDF0C20359
:018CB700229A
:108E9700E4F598D29EC298C299D29CC2CAF5C8D2AC
:108EA700CDD2CC75CBFF75CDFF75CAD975CCD9D2CC
:028EB700CA22CD
:098FFF00907FAFE04408F0D3229A
:028AFD00D32282
:02902C00D3224D
:08901800907FEAE0F513D3227A
:0E8AEF00907F00E513F0907FB57401F0D32264
:08902000907FEAE0F508D3227D
:0E8FDC00907F00E508F0907FB57401F0D3227D
:02902E00D3224B
:02903000D32249
:02903200D32247
:02903400D32245
:108F1300C0E0C083C082D2075391EF907FAB74014E
:088F2300F0D082D083D0E032CF
:108F7300C0E0C083C0825391EF907FAB7404F0D004
:068F830082D083D0E03231
:108F8900C0E0C083C0825391EF907FAB7402F0D0F0
:068F990082D083D0E0321B
:108F9F00C0E0C083C0825391EF907FAB7410F0D0CC
:068FAF0082D083D0E03205
:018AFF003244
:108F2B00C0E0C083C082D2095391EF907FAB74082D
:088F3B00F0D082D083D0E032B7
:019036003207
:019037003206
:019038003205
:019039003204
:01903A003203
:108F4300C0E0C083C082D2045391EF907FAA74041F
:088F5300F0D082D083D0E0329F
:01903B003202
:01903C003201
:01903D003200
:108F5B00C0E0C083C082D2035391EF907FAA7410FC
:088F6B00F0D082D083D0E03287
:01903E0032FF
:01903F0032FE
:0190400032FD
:0190410032FC
:0190420032FB
:0190430032FA
:0190440032F9
:0190450032F8
:0190460032F7
:0190470032F6
:0190480032F5
:0190490032F4
:01904A0032F3
:01904B0032F2
:01904C0032F1
:01904D0032F0
:01904E0032EF
:01904F0032EE
:0190500032ED
:0190510032EC
:0190520032EB
:108CB8001201000100000040440F02000100000002
:108CC800000109022E00010100A0000904000004AF
:108CD800FF0000000705820240000007050202406D
:108CE8000000070584034000050705040208000585
:108CF80004030904120350006F006C00680065004B
:108D08006D00750073001003460061007300740065
:088D1800720061006B00000015
:0300230002829EB8
:10829E00C0D0C0E075D000C000C00120984F78FF5C
:1082AE008600B8FF2974F73099FDC299F599D0016F
:1082BE007805D0E07106D8FAE9710651D4C0E051C4
:1082CE00D4C0E051D4F83098FDE599C29822E581EA
:1082DE0024FCF9800C0819E66708097004E667604B
:1082EE00C4B8FEF1D001D000D0E0D0D032E599C2B2
:1082FE0098B4A5F0D29980AD3099FDC299F5992226
:10830E008882F58341C98881F5F041C9F58041C95C
:10831E00F5B041C9E581C083C082C08EC0F0C0E017
:10832E00C0E041B5E589C088C087C086C085C084DD
:10833E00C08041B5E590C08FC08EC08DC08CC08B03
:10834E00C08A41B5E597C096C095C094C093C092BF
:10835E00C09141B5E59EC09DC09CC09BC09AC0997E
:10836E00C09841B5E5A5C0A4C0A3C0A2C0A1C0A03D
:10837E00C09F41B5E5ACC0ABC0AAC0A9C0A8C0A7FC
:10838E00C0A641B5E5B3C0B2C0B1C0B0C0AFC0AEBB
:10839E00C0AD41B5E5BAC0B9C0B8C0B7C0B6C0B57A
:1083AE00C0B441B5E5C1C0C0C0BFC0BEC0BDC0BC39
:0483BE00C0BB41B54A
:1083C200E5C8C0C7C0C6C0C5C0C4C0C3C0C241B5ED
:1083D200E5CFC0CEC0CDC0CCC0CBC0CAC0C941B5AC
:1083E200E5D7C0D6C0D5C0D4C0D3C0D2C0D141B564
:1083F200E5DEC0DDC0DCC0DBC0DAC0D9C0D841B523
:10840200E5E6C0E5C0E4C0E3C0E2C0E1C0DF41B5DB
:10841200E5EDC0ECC0EBC0EAC0E9C0E8C0E741B599
:10842200E5F5C0F4C0F3C0F2C0F1C0EFC0EE41B553
:10843200E5FCC0FBC0FAC0F9C0F8C0F7C0F641B510
:10844200E5FFC0FEC0FDC0E0C0E0C0E0C0E041B555
:10845200C0E051D4C0E051D4C0E051D4F951D4C0ED
:10846200E0C00078FFE67002C29941F478FF76FF1F
:04847200D2AC220066
:108EF900907FD6E030E712E04401F07F147E001243
:0A8F09008E6E907FD6E054FEF02239
:108EB900907FD6E04480F043870100000000002243
:078D7E00907FD6E04408F0ED
:038D8500E4F532E0
:048D8800E054FBF0C8
:038D8C00E4F532D9
:108D8F00E04408F0300A04E04402F07FDC7E051274
:108D9F008E6E907F92E030E3077FDC7E05128E6E41
:108DAF00907FAB74FFF0907FA9F0907FAAF0539162
:088DBF00EF907FD6E054F7F0BD
:038DC700E4F5329E
:058DCA00E04404F0226A
:108EC9007400F58690FDA57C05A3E582458370F9BC
:018ED9002276
:108E6E008E7B8F7C907F92E030E30BE57C25E0F5E6
:108E7E007CE57B33F57BE57C157CAE7B7002157B48
:098E8E004E6005128EC980EE222F
:028E4200A9077E
:108E4400AE1DAF1E8F828E83A3E064037017AD0145
:108E540019ED7001228F828E83E07C002FFDEC3EA1
:098E6400FEAF0580DF7E007F00F7
:018E6D0022E2
:108DCF00E4FEAC1BAD1C8D828C83A3E06402702D7E
:108DDF00AB060EEBB50705AF05AE04228D828C8373
:108DEF00A3A3E0F53DA3E0F53E623DE53D623EE520
:108DFF003E623D2DFBE53D3CFCAD0380C97E007F0F
:018E0F000062
:018E1000223F
:03000000028BBBB5
:0C8BBB00787FE4F6D8FD75817C028C0206
:10884700E709F608DFFA8046E709F208DFFA803E13
:1088570088828C83E709F0A3DFFA8032E309F60800
:10886700DFFA8078E309F208DFFA807088828C8368
:10887700E309F0A3DFFA806489828A83E0A3F6081C
:10888700DFFA805889828A83E0A3F208DFFA804CF6
:1088970080D280FA80C680D4806980F280338010CD
:1088A70080A680EA809A80A880DA80E280CA803336
:1088B70089828A83ECFAE493A3C8C582C8CCC583AE
:1088C700CCF0A3C8C582C8CCC583CCDFE9DEE7807E
:1088D7000D89828A83E493A3F608DFF9ECFAA9F0FD
:1088E700EDFB2289828A83ECFAE0A3C8C582C8CC53
:1088F700C583CCF0A3C8C582C8CCC583CCDFEADE6C
:10890700E880DB89828A83E493A3F208DFF980CCCD
:1089170088F0EF60010E4E60C388F0ED2402B404C6
:108927000050B9F582EB2402B4040050AF2323456D
:0689370082239088977373
:10893D00BB010689828A83E0225002E722BBFE0238
:09894D00E32289828A83E493226B
:10895600BB010CE58229F582E5833AF583E02250D6
:1089660006E92582F8E622BBFE06E92582F8E22220
:0D897600E58229F582E5833AF583E493223A
:10898300BB010689828A83F0225002F722BBFE01D3
:02899300F322CD
:10899500F8BB010DE58229F582E5833AF583E8F018
:1089A500225006E92582C8F622BBFE05E92582C8C4
:0289B500F222AC
:1089B700EB9FF5F0EA9E42F0E99D42F0E89C45F016
:0189C700228D
:1089C8007401FF3395E0FEFDFC080808E6CF2FF69A
:1089D80018E6CE3EF618E6CD3DF618E6CC3CF62273
:108FB500E4FFFE12893D600C0FEF70010E09E970A8
:058FC500F20A80EF221A
:10847600C582F951D4C583229176C0E0E0A3710686
:10848600D8FA8982D08341C99176C0E0E493A3717A
:1084960006D8F980EDF9E7097106D8FA41C991764F
:0A84A600C0E0E8F080DCF641C900F8
:108BC70002869BE493A3F8E493A34003F68001F2A3
:108BD70008DFF48029E493A3F85407240CC8C333AF
:108BE700C4540F4420C8834004F456800146F6DF7E
:108BF700E4800B0102040810204080908FCAE47EB5
:108C0700019360BCA3FF543F30E509541FFEE49372
:108C1700A360010ECF54C025E060A840B8E493A339
:108C2700FAE493A3F8E493A3C8C582C8CAC583CA64
:108C3700F0A3C8C582C8CAC583CADFE9DEE780BE1C
:018FDB000095
:00000001FF
