:0F0BB200312E302E305F4853004552524F5200C3
:050BE6000330FF0BB21B
:1008C300E4F5A890E60174EBF075B67C90E600E0E1
:1008D30054E74410F090E60274BCF000000090E688
:1008E300037405F000000090E6097423F000000093
:1008F30012041C43B13490E6687403F090E650048C
:10090300F000000090E65E7480F0D2ACD2AF75A820
:100913000143E80543B1087F017E001209C653B1C4
:02092300F722B9
:10041C0090E60B7403F000000090E61574E0F00019
:10042C00000090E69C7480F000000090E69DF000C7
:10043C00000090E604F00000007408F0000000E4F6
:10044C00F000000090E61B740CF000000090E680B9
:10045C00E030E70F90E6267402F0000000E490E62E
:10046C0027800DE490E626F000000090E62774400B
:10047C00F000000090E61474A2F000000090E60476
:10048C007480F00000007406F0000000E4F000003E
:10049C000090E61AF000000090E6497486F0000027
:1004AC0000F000000090E61374A0F000000090E64D
:1004BC00047480F00000007404F0000000E4F0000C
:1004CC00000090E6497484F0000000F000000090F9
:1004DC00E6197410F000000090E61274E2F00000CF
:1004EC000090E6047480F00000007402F00000003C
:1004FC00E4F000000090E618F000000090E6327482
:10050C0080F000000090E6337401F000000090E6EB
:10051C003074C0F000000090E6317401F00000006F
:01052C0022AC
:0106FF0022D8
:020BF000D3220E
:020BF200D3220C
:020BF400D3220A
:080BD60090E6BAE0F533D322EA
:100B8E0090E740E533F0E490E68AF090E68B04F0CF
:020B9E00D32260
:080BDE0090E6BAE0F52FD322E6
:100BA00090E740E52FF0E490E68AF090E68B04F0C1
:020BB000D3224E
:020BF600D32208
:020BF800D32206
:020BFA00D32204
:020BFC00D32202
:100B1D00C0E0C083C082D2015391EF90E65D7401B5
:080B2D00F0D082D083D0E03249
:100B4D00C0E0C083C0825391EF90E65D7404F0D095
:060B5D0082D083D0E032DB
:100B6300C0E0C083C0825391EF90E65D7402F0D081
:060B730082D083D0E032C5
:100A4900C0E0C083C082852925852A26852682851E
:100A59002583A37402F0852127852228852882858C
:100A69002783A37407F05391EF90E65D7410F0D0DB
:060A790082D083D0E032C0
:100B3500C0E0C083C082D2035391EF90E65D740894
:080B4500F0D082D083D0E03231
:100A0C00C0E0C083C08290E680E030E720852125DD
:100A1C00852226852682852583A37402F0852927C5
:100A2C00852A28852882852783A37407F05391EFA4
:0D0A3C0090E65D7420F0D082D083D0E032CF
:010BFE0032C4
:010BFF0032C3
:010C000032C1
:010C010032C0
:010C020032BF
:010C030032BE
:010C040032BD
:010C050032BC
:010C060032BB
:100AFE00C0E0C083C08243B10800000053B1F75379
:0F0B0E0091EF90E65F7480F0D082D083D0E03218
:010C070032BA
:010C080032B9
:010C090032B8
:010C0A0032B7
:010C0B0032B6
:010C0C0032B5
:010C0D0032B4
:010C0E0032B3
:010C0F0032B2
:010C100032B1
:010C110032B0
:010C120032AF
:1006B800C0E0C0F0C083C082C0D075D000C000C008
:1006C80001C002C003C004C005C006C00712097CEF
:1006D8005391BF90E6517404F0000000D007D00693
:1006E800D005D004D003D002D001D000D0D0D08221
:0706F800D083D0F0D0E03206
:010C130032AE
:010C140032AD
:010C150032AC
:010C160032AB
:010C170032AA
:010C180032A9
:010C190032A8
:010C1A0032A7
:010C1B0032A6
:010C1C0032A5
:010C1D0032A4
:010C1E0032A3
:010C1F0032A2
:10097C0000000090F000E0FF7E0000000090E648D0
:10098C007482F000000053B1FBEE7027EF245F700F
:10099C002290E6A7E020E1F900000090F000E0FFD3
:1009AC007E0000000090E6487482F0000000120502
:0909BC002D80031207A843B104C9
:0109C500220F
:10052D00AB30AA31A932120B798E088F0900000069
:10053D0090E6047480F00000007406F0000000E402
:10054D00FFFEC3EF9509E5086480F8EE64809850CE
:10055D0024AB30AA31A9328F828E83120925FD7406
:10056D00002FF58274F83EF583EDF00000000FBF0B
:10057D0000010E80CD74002509F58274F83508F55B
:10058D0083E4F000000090E680E0C41313135401DF
:10059D00FF74012509F58274F83508F583EFF00035
:1005AD000000E490E698F0000000E509240290E6D2
:1005BD0099F000000090E6497486F0000000E49088
:0605CD00E604F00000004E
:0105D3002205
:1007A8007BFF7A0B79BB8B0A8A0B890C120B798E2B
:1007B800088F0900000090E6047480F000000074BF
:1007C80006F0000000E4FFFEC3EF9509E508648029
:1007D800F8EE6480985024AB0AAA0BA90C8F828E7D
:1007E80083120925FD74002FF58274F83EF583ED18
:1007F800F00000000FBF00010E80CD74002509F540
:100808008274F83508F583E4F000000090E698F06B
:10081800000000E5090490E699F000000090E64920
:0E0828007486F0000000E490E604F00000008A
:01083600229F
:0A0BCC000001020203030404050502
:1002B700E4F518F517F516F515C203C200C202C218
:1002C700011208C37E077F008E238F24752B0775C5
:1002D7002C1275210775221C752907752A4A752D59
:1002E70007752E78EE54C070030203B675190075B2
:1002F7001A808E1B8F1CC374A69FFF74079ECF2482
:1003070002CF3400FEE48F148E13F512F511F510A9
:10031700F50FF50EF50DAF14AE13AD12AC11AB1012
:10032700AA0FA90EA80DC31209525031AE0FAF1074
:10033700E51C2FF582E51B3EF583E0FDE51A2FF559
:1003470082E5193EF583EDF0EF2401F510E43EF563
:100357000FE4350EF50EE4350DF50D80B98519233B
:10036700851A2474002480FF740734FFFEC3E52C2C
:100377009FF52CE52B9EF52BC3E5269FF526E52556
:100387009EF525C3E5289FF528E5279EF527C3E5B4
:10039700229FF522E5219EF521C3E52A9FF52AE54F
:1003A700299EF529C3E52E9FF52EE52D9EF52DD225
:1003B700E843D82090E668E04409F090E65CE04422
:1003C7003DF0D2AF90E680E020E105D204120A7F2B
:1003D70090E680E054F7F0538EF8C2031206FF3020
:1003E7000105120080C2013003F2120BF050EDC27A
:1003F70003120AD920001690E682E030E704E020D5
:10040700E1EF90E682E030E604E020E0E41205D474
:05041700120BF280C78A
:0B0BC10090E50DE030E402C322D322D7
:1000800090E6B9E0700302013F1470030201BC2442
:10009000FE700302023F24FB700302013914700357
:1000A00002013314700302012714700302012D248E
:1000B0000560030202A3120BF440030202AF90E6B4
:1000C000BBE024FE602714603824FD601114602713
:1000D00024067050E52390E6B3F0E524803C120B33
:1000E000C1503EE52B90E6B3F0E52C802DE5259040
:1000F000E6B3F0E5268023E52790E6B3F0E5288017
:100100001990E6BAE0FF120AAEAA06A9077B01EA37
:10011000494B600DEE90E6B3F0EF90E6B4F00202CA
:10012000AF02029E02029E120BA00202AF120BDE71
:100130000202AF120BD60202AF120B8E0202AF12F6
:100140000BF640030202AF90E6B8E0247F6015147E
:10015000601924027063A200E43325E0FFA202E4E8
:10016000334F8041E490E740F0803F90E6BCE0549C
:100170007EFF7E00E0D394807C0040047D018002FD
:100180007D00EC4EFEED4F24CCF582740B3EF583E2
:10019000E493FF3395E0FEEF24A1FFEE34E68F8277
:1001A000F583E0540190E740F0E4A3F090E68AF094
:1001B00090E68B7402F00202AF02029E120BF8402E
:1001C000030202AF90E6B8E024FE6016240260034A
:1001D0000202AF90E6BAE0B40105C2000202AF022B
:1001E000029E90E6BAE0705590E6BCE0547EFF7E39
:1001F00000E0D394807C0040047D0180027D00EC0F
:100200004EFEED4F24CCF582740B3EF583E493FF54
:100210003395E0FEEF24A1FFEE34E68F82F583E014
:1002200054FEF090E6BCE05480131313541FFFE01B
:10023000540F2F90E683F0E04420F08072805F122C
:100240000BFA506B90E6B8E024FE60192402704E61
:1002500090E6BAE0B40104D200805490E6BAE064BB
:1002600002604C803990E6BCE0547EFF7E00E0D313
:1002700094807C0040047D0180027D00EC4EFEED08
:100280004F24CCF582740B3EF583E493FF3395E065
:10029000FEEF24A1FFEE34E68F82F583800D90E619
:1002A000A08008120BFC500790E6A0E04401F090FB
:0602B000E6A0E04480F02E
:0102B6002225
:03003300020BECD1
:040BEC0053D8EF32B9
:100700001201000200000040440F20FF000001021F
:1007100000010A06000200000040010009022E004C
:1007200001010080320904000004FF0000000705F9
:10073000820200020007050402000200070506020B
:100740000002000705880200020009022E000101D4
:100750000080320904000004FF0000000705820247
:1007600040000007050402400000070506024000A3
:10077000000705880240000004030904120350002A
:100780006F006C00680065006D0075007300180351
:100790004C0069006200650072007400790020005E
:0807A00032002E0030000000C1
:03004300020600B2
:03005300020600A2
:10060000020B1D00020B6300020B4D00020B3500B4
:10061000020A4900020A0C00020BFE00020BFF0056
:10062000020C0000020C0100020C0200020C03008C
:10063000020C0400020C0500020C0600020AFE0077
:10064000020C0700020BFF00020C0800020C09005C
:10065000020C0A00020C0B00020C0C00020C0D0034
:10066000020C0E00020BFF00020BFF00020BFF004A
:10067000020C0F00020C1000020C1100020C120000
:100680000206B800020C1300020C1400020C150044
:10069000020C1600020C1700020C1800020C1900C4
:1006A000020C1A00020C1B00020C1C00020C1D00A4
:0806B000020C1E00020C1F00E9
:1005D40090E682E030E004E020E60B90E682E03032
:1005E400E119E030E71590E680E04401F07F147EE5
:0C05F400001209C690E680E054FEF022E0
:100A7F0030040990E680E0440AF0800790E680E0B9
:100A8F004408F07FDC7E051209C690E65D74FFF026
:0F0A9F0090E65FF05391EF90E680E054F7F0227D
:1009C6008E1D8F1E90E600E054187012E51E24015D
:1009D600FFE4351DC313F51DEF13F51E801590E6D4
:1009E60000E05418FFBF100BE51E25E0F51EE51DBF
:1009F60033F51DE51E151EAE1D7002151D4E600554
:060A0600120AED80EE2251
:020AAE00A90796
:100AB000AE2DAF2E8F828E83A3E064037017AD013D
:100AC00019ED7001228F828E83E07C002FFDEC3EB9
:080AD000FEAF0580DFE4FEFF2C
:010AD80022FB
:100AD90090E682E044C0F090E681F043870100008F
:040AE90000000022E7
:100AED007400F58690FDA57C05A3E582458370F91C
:010AFD0022D6
:03000000020837BC
:0C083700787FE4F6D8FD75813302087E5E
:10092500BB010CE58229F582E5833AF583E0225087
:1009350006E92582F8E622BBFE06E92582F8E222D1
:0D094500E58229F582E5833AF583E49322EB
:10095200EB9FF5F0EA9E42F0E99D42F0E89C45F0FB
:010962002272
:100B7900E4FFFE120963600C0FEF70010E09E970C2
:050B8900F20A80EF22DA
:100843000202B7E493A3F8E493A34003F68001F212
:1008530008DFF48029E493A3F85407240CC8C333B6
:10086300C4540F4420C8834004F456800146F6DF85
:10087300E4800B0102040810204080900BE6E47E24
:10088300019360BCA3FF543F30E509541FFEE4937A
:10089300A360010ECF54C025E060A840B8E493A341
:1008A300FAE493A3F8E493A3C8C582C8CAC583CA6C
:1008B300F0A3C8C582C8CAC583CADFE9DEE780BE24
:010BEB000009
:10096300BB010689828A83E0225002E722BBFE0292
:09097300E32289828A83E49322C5
:00000001FF
