:0300430002920026
:0300530002928096
:10920000029542000295A00002958A0002955A003C
:109210000295B60002965E0002965F00029660001C
:1092200002966100029662000295CC0002966300ED
:109230000296640002966500029666000296670038
:10924000029668000296690002966A000295720012
:0892500002966B0002966C000F
:1092800002966D0002966E000296700002966F00C4
:1092900002967100029672000296730002967400A4
:1092A0000296750002967600029677000296780084
:0B92B0000296790002967A0002967B7D
:108C5500E4F52CF52BF52AF529C203C200C202C2A0
:108C650001128F8C7E937F478E158F16751793751E
:108C75001859751993751A80EE54E07003028D61C9
:108C8500752D00752E808E2F8F30C374AE9FFF74A7
:108C9500939ECF2402CF3400FEE48F288E27F5263D
:108CA500F525F524F523F522F521AF28AE27AD26C8
:108CB500AC25AB24AA23A922A821C312822D5026B4
:108CC500E52E2524F582E52D3523F58374CDF0E5D4
:108CD500242401F524E43523F523E43522F522E4A3
:108CE5003521F52180C4E4F524F523F522F521AFDE
:108CF50028AE27AD26AC25AB24AA23A922A821C3DB
:108D050012822D5031AE23AF24E5302FF582E52FA9
:108D15003EF583E0FDE52E2FF582E52D3EF583ED4D
:108D2500F0EF2401F524E43EF523E43522F522E4B1
:108D35003521F52180B9852D15852E16744724809A
:108D4500FF749334FFFEC3E5189FF518E5179EF5EC
:108D550017C3E51A9FF51AE5199EF519D2E843D808
:108D650020907F95E044C0F0907FAFE04401F09003
:108D75007FAEE0441DF0D2AF200141200105D206AF
:108D85001293B0E4F52CF52BF52AF5297F407E9258
:108D95007D047C00AB2CAA2BA92AA829C312822DFD
:108DA50050D62001D3E52C2401F52CE4352BF52BE9
:108DB500E4352AF52AE43529F52980D0538EF83093
:108DC500010512833FC20130031A1291F75015C2F3
:108DD50003129507200007907FD6E020E7F3129550
:108DE5002812965220AC1030980DE59964A56004C0
:0C8DF500C2988003128C13128E0180C300
:10833F00907FE9E070030284B414700302851F2458
:10834F00FE700302858624FB70030284AE14700353
:10835F000284A814700302849C1470030284A22464
:10836F000560030285CB12965440030285D7907F98
:10837F00EBE024FE601414603A2402600302849937
:10838F00E515907FD4F0E516801F907FEAE0FF128D
:10839F00944EAA06A9077B018B318A328933EA49A9
:1083AF004B600DEE907FD4F0EF907FD5F00285D724
:1083BF000285D0907FEAE0FF129490AA06A9077B6E
:0F83CF00018B318A328933EA494B70030284965D
:1083DE00AB318B388A39893A1280F6F53B907FEEB5
:1083EE00E0FFE53BD39F4003E0F53BE53B70030226
:1083FE00848BE4F537F536F535F534E53BC394401B
:10840E005004AF3B80027F40E4FCFDFEAB37AA3642
:10841E00A935A834C312822D5032E53A2537F5829C
:10842E00E5393536F583E0FF74002537F582E434FF
:10843E007FF583EFF0E5372401F537E43536F53671
:10844E00E43535F535E43534F53480AFE53BC3948A
:10845E00405004AF3B80027F40907FB5EFF0E53B8C
:10846E00C394405004AF3B80027F40C3E53B9FF571
:10847E003B907FB4E020E2030283F980F4E4907F26
:05848E00B5F0907FB481
:108493000285160285D00285D012961A0285D7125C
:1084A30096400285D71296380285D712960C02851C
:1084B300D712965640030285D7907FE8E0247F6069
:1084C3001F14602824027051A200E43325E0FFA2A8
:1084D30002E4334F907F00F0E4A3F0907FB5803344
:1084E300E4907F00F0A3F0907FB58027907FECE0CD
:1084F300F45480C4540FFFE054072F25E024B4F54F
:1085030082E4347FF583E05401907F00F0E4A3F02C
:10851300907FB57402F00285D70285D01296584039
:10852300030285D7907FE8E024FE601624026003EF
:108533000285D7907FEAE0B40105C2000285D70225
:1085430085D0907FEAE07039907FECE0F45480C4EA
:10855300540FFFE054072F25E024B4F582E4347F61
:10856300F583E4F0907FECE05480131313541FFF62
:08857300E054072F907FD7F0C0
:03857B00E4F538EC
:10857E00E04420F08053804A12965A504C907FE887
:10858E00E024FE601124027040907FEAE0B4010402
:10859E00D2008035802C907FEAE0701F907FECE057
:1085AE00F45480C4540FFFE054072F25E024B4F593
:1085BE0082E4347FF5837401F0800E800512965CA0
:1085CE005007907FB4E04401F0907FB4E04402F095
:0185DE00227A
:0300330002964EE4
:04964E0053D8EF32CC
:109347001201000100000040440F12FF010000005D
:10935700000109022700010100A000090400000321
:10936700FF000000070582024000000705020240D7
:109377000000070506020800000403090412035051
:10938700006F006C00680065006D007500730018C1
:10939700034C004900420045005200540059002088
:0993A700004800530054000000CE
:03002300028A430B
:108A4300C0D0C0E075D000C000C00120984F78FFAF
:108A53008600B8FF2974F73099FDC299F599D001C2
:108A63007805D0E051ABD8FAE951AB5179C0E05168
:108A730079C0E05179F83098FDE599C29822E581F3
:108A830024FCF9800C0819E66708097004E667609E
:108A9300C4B8FEF1D001D000D0E0D0D032E599C205
:108AA30098B4A5F0D29980AD3099FDC299F5992279
:108AB3008882F583416E8881F5F0416EF580416EC1
:108AC300F5B0416EE581C083C082C08EC0F0C0E0C6
:108AD300C0E0415AE589C088C087C086C085C0848C
:108AE300C080415AE590C08FC08EC08DC08CC08BB2
:108AF300C08A415AE597C096C095C094C093C0926E
:108B0300C091415AE59EC09DC09CC09BC09AC0992C
:108B1300C098415AE5A5C0A4C0A3C0A2C0A1C0A0EB
:108B2300C09F415AE5ACC0ABC0AAC0A9C0A8C0A7AA
:108B3300C0A6415AE5B3C0B2C0B1C0B0C0AFC0AE69
:108B4300C0AD415AE5BAC0B9C0B8C0B7C0B6C0B528
:108B5300C0B4415AE5C1C0C0C0BFC0BEC0BDC0BCE7
:048B6300C0BB415AF8
:108B6700E5C8C0C7C0C6C0C5C0C4C0C3C0C2415A9B
:108B7700E5CFC0CEC0CDC0CCC0CBC0CAC0C9415A5A
:108B8700E5D7C0D6C0D5C0D4C0D3C0D2C0D1415A12
:108B9700E5DEC0DDC0DCC0DBC0DAC0D9C0D8415AD1
:108BA700E5E6C0E5C0E4C0E3C0E2C0E1C0DF415A8A
:108BB700E5EDC0ECC0EBC0EAC0E9C0E8C0E7415A48
:108BC700E5F5C0F4C0F3C0F2C0F1C0EFC0EE415A02
:108BD700E5FCC0FBC0FAC0F9C0F8C0F7C0F6415ABF
:108BE700E5FFC0FEC0FDC0E0C0E0C0E0C0E0415A04
:108BF700C0E05179C0E05179C0E05179F95179C0AD
:108C0700E0C00078FFE67002C299419978FF76FFCD
:048C1700D2AC2200B9
:10919A00322E302E3100547261636B65722046693B
:1091AA00726D7761726520697320696E636F6D7085
:1091BA00617469626C65207769746820492F4F2051
:1091CA0050726F636573736F7220636F6465202DCD
:1091DA002D20555047524144452052455155495238
:0D91EA0045440D0A004C590000170000001C
:1095E2000509FF525A56FFC10442501756524350C2
:0495F20014FF919A37
:108F8C00907FDE7404F0907FDF7444F0907FDD748A
:108F9C0081F0E4907F96F0907F97F0907F98F0901E
:108FAC007841F0907845F0907F9C7410F0E4907FBD
:108FBC009DF0907F9E7434F0E4907843F090784765
:108FCC007438F090784A7403F0907F9474FFF090AA
:108FDC007F957443F0E490784BF090784CE0E4F09B
:108FEC00907F98E04410F0907845E054DFF0E490E6
:108FFC00780AF0907818F090781C7420F090781D16
:10900C007401F0E4907802F09078037482F0E490AC
:10901C007810F0907811F09078077482F0E49078E2
:10902C0008F0907815F0907816F090780BF0907816
:10903C0019F090780C74FFF090781AF0E490781E88
:10904C00F0F5A8F5B8F591F5D8F5E8F5F8907F921C
:10905C00F0758933F588F5C8907845E04420F01216
:10906C0094E5E4F50EF50FF511F5127B019050190E
:10907C0004F0A37450F0A37400F07A50F990501FD0
:10908C00EBF0A3EAF0A3E9F090501CEBF0A3EAF0AC
:10909C00A3E9F0905022E4F0A37414F0E4A3F0A33D
:0490AC00F0029648F0
:108E0100907FC8E020E147907818E030E440907FFF
:108E1100C9E0603AE0907854F090784F747DF0A307
:108E210074C0F07A78790E7E787F0E9078517478DC
:108E3100F0A3740EF0C2AF90785574FFF09078559E
:108E4100E030E7F9D2AFE4907FC9F012964890780C
:108E510006E0C39402405A907805E0F532E0F5311E
:108E6100905017E06532701AA3E0B531159078067D
:108E7100E0600C907805E0F531B442030294010200
:108E810090B0E50F450E701185310E85320F850EBC
:108E910011850F12129648801875360075370075C6
:108EA1003831753900753A027B017A507919128887
:108EB1001EE50F450E7003028F8BC3E5129440E54A
:108EC10011648094805006AE11AF1280047E007F41
:108ED100408E138F14907801E0C39514E5136480DC
:108EE100F87480985016E07003129648E4FFFE0073
:108EF1000FBF00010EEF64644E70F422907FB8E062
:108F010030E103028F8BE51445136033907854E50B
:108F110014F090784F7478F0A37400F07A7E7900A1
:108F21007E7E7F00907851747EF0A37400F0C2AF12
:108F310090785574FFF0907855E030E7F9D2AF742E
:108F4100C02512F51274FF3511F511C364809480A8
:108F5100502F905024E07002A3E060207536007518
:108F6100370075380E753900753A027B017A5079F0
:108F7100191285DF850E11850F128005E4F50EF5B6
:0A8F81000F907FB9E514F012964836
:018F8B0022C3
:0696480012962802963084
:08962800907F98E04420F0223D
:08963000907F98E054DFF02266
:10940100905014E0FBA3E0FAA3E0F91295F78E3334
:109411008F349078137441F0E4FFFEC3EF9534E587
:10942100336480F8EE648098501D905014E0FBA3E3
:10943100E0FAA3E0F98F828E8312810F907813F006
:0C9441000FBF00010E80D4E4907813F0FF
:01944D0022FC
:1090B000E4F537F53890502674FFF0A37491F0A3CF
:1090C00074A0F078297C507D017BFF7A9179EF7E46
:1090D000007F081280D0905026E0FBA3E0FAA3E0C6
:1090E000F91295F78E338F3490502FEFF07F0A7E70
:1090F000001294BC907FB8E030E1030291997800AF
:109100007C7E7D017B017A5079297E007F08128068
:10911000D0753900753A08E5344533607C907FB8E6
:10912000E020E1F3C37440953AFFE49539FEC3E5CE
:10913000349FEE6480F8E533648098500AAC33AD18
:1091400034AE04AF0580008E358F36905026E0FB9C
:10915000A3E0FAA3E02538F9EA3537FAC001740034
:10916000253AF9E4347EA801FC7D01D0011280D0BB
:10917000E536253A907FB9F0E4F539F53AC3E534A0
:109180009536F534E5339535F533E5362538F5383C
:09919000E5353537F5370291177A
:0191990022B3
:1094E500E4F598D29EC298C299D29CC2CAF5C8D258
:1094F500CDD2CC75CBFF75CDFF75CAD975CCD9D278
:02950500CA2278
:0991F700907FAFE04408F0D322A0
:02965200D32221
:02965400D3221F
:08963800907FEAE0F510D32257
:0E960C00907F00E510F0907FB57401F0D3223E
:08964000907FEAE0F508D32257
:0E961A00907F00E508F0907FB57401F0D32238
:02965600D3221D
:02965800D3221B
:02965A00D32219
:02965C00D32217
:10954200C0E0C083C082D2015391EF907FAB74011F
:08955200F0D082D083D0E0329A
:10958A00C0E0C083C0825391EF907FAB7404F0D0E7
:06959A0082D083D0E03214
:1095A000C0E0C083C0825391EF907FAB7402F0D0D3
:0695B00082D083D0E032FE
:1095B600C0E0C083C0825391EF907FAB7410F0D0AF
:0695C60082D083D0E032E8
:01965E0032D9
:10955A00C0E0C083C082D2035391EF907FAB7408FE
:08956A00F0D082D083D0E03282
:01965F0032D8
:0196600032D7
:0196610032D6
:0196620032D5
:1095CC00C0E0C083C0825391EF907FA97404F0D0A7
:0695DC0082D083D0E032D2
:0196630032D4
:0196640032D3
:0196650032D2
:0196660032D1
:0196670032D0
:0196680032CF
:0196690032CE
:01966A0032CD
:10957200C0E0C083C082D2045391EF907FAA7440AE
:08958200F0D082D083D0E0326A
:01966B0032CC
:01966C0032CB
:01966D0032CA
:01966E0032C9
:01966F0032C8
:0196700032C7
:0196710032C6
:0196720032C5
:0196730032C4
:0196740032C3
:0196750032C2
:0196760032C1
:0196770032C0
:0196780032BF
:0196790032BE
:01967A0032BD
:01967B0032BC
:06881E008B338A3489351A
:10882400C2AF90000B128189FFAEF0900009128153
:1088340089FDACF0C39FFFEC9EFED3E53A9FEE6446
:1088440080F8E5396480984007D2AF7EFF7FFF222D
:10885400AB33AA34A93512823EE92DF9EA3CFAC0B9
:1088640003C002C001AB33AA34A9359000031282BD
:108874005EE9253AF9EA3539FAD3D082D083D0E0DB
:10888400E99582EA95834003028933E4F53DF53E98
:10889400C3E53E953AE5396480F8E53D6480985037
:1088A40030AB36AA37A938853E82853D8312810FC5
:1088B400FFAB33AA34A93590000312825E853E8251
:1088C400853D83EF12813C053EE53E70C3053D8046
:1088D400BFAB33AA34A935900003A3E539853AF038
:1088E4001281C1AB33AA34A935900009128189FFE2
:1088F400AEF012823EE92FF9EA3EFAC003C002C08C
:1089040001AB33AA34A93590000312825ED082D021
:1089140083D0E06B7008E965827003EA65836003C5
:10892400028A2BAB33AA34A93512823E028A19ABD0
:1089340033AA34A935900009128189FFAEF012825E
:108944003EE92FF9EA3EFEAF01AB33AA34A93590D4
:10895400000312825EAC02C3EF99F53CEE9CF53B3A
:10896400E4F53DF53EC3E53E953CE53B6480F8E522
:108974003D6480985030AB36AA37A938853E82854D
:108984003D8312810FFFAB33AA34A9359000031243
:10899400825E853E82853D83EF12813C053EE53E45
:1089A40070C3053D80BFE4F53DF53EC3E53A953C13
:1089B400FFE539953BFEC3E53E9FEE6480F8E53D57
:1089C4006480985034E53C253EFFE53B353DAB36AD
:1089D400AA37A9388F82F58312810FFFAB33AA34EB
:1089E400A93512823E853E82853D83EF12813C0586
:1089F4003EE53E70B6053D80B2AE3BAF3CAB33AA1C
:108A040034A93512823EE9253AF9EA3539FAC3E93F
:108A14009FF9EA9EFAC003C002C001AB33AA34A98D
:108A24003590000312828EAB33AA34A93590000B23
:0E8A3400E539853AF01281C1D2AFAE39AF3AC2
:018A42002211
:0685DF008B338A3489355C
:1085E500C2AF90000B128189FDACF04C7005D2AF83
:1085F500FEFF22D3E53A9DEC6480F8E53964809866
:108605004013AB33AA34A93590000B128189F53C90
:1086150085F03B800685393B853A3CAB33AA34A9C6
:1086250035900009128189FFAEF012823EE92FF9DB
:10863500EA3EFAC003C002C001AB33AA34A93590A3
:10864500000612825EE9253CF9EA353BFAD3D08271
:10865500D083D0E0E99582EA95834003028706E45A
:10866500F53FF540C3E540953CE53B6480F8E53FC3
:10867500648098502EAB33AA34A935900006128237
:108685005E854082853F8312810FAB36AA37A938B4
:10869500854082853F8312813C0540E54070C505D4
:1086A5003F80C1AB33AA34A935900006A3E53B85CD
:1086B5003CF01281C1AB33AA34A93590000912816F
:1086C50089FFAEF012823EE92FF9EA3EFAC003C0F7
:1086D50002C001AB33AA34A93590000612825ED0E0
:1086E50082D083D0E06B7008E965827003EA658308
:1086F50060030287FCAB33AA34A93512823E028798
:10870500EAAB33AA34A935900009128189FFAEF08E
:1087150012823EE92FF9EA3EFEAF01AB33AA34A936
:108725003590000612825EAC02C3EF99F53EEE9CD1
:10873500F53DE4F53FF540C3E540953EE53D6480F4
:10874500F8E53F648098502EAB33AA34A9359000E4
:108755000612825E854082853F8312810FAB36AA61
:1087650037A938854082853F8312813C0540E54025
:1087750070C5053F80C1E4F53FF540C3E53C953E36
:10878500FFE53B953DFEC3E5409FEE6480F8E53F80
:108795006480985034AB33AA34A93512823E8540A3
:1087A50082853F8312810FFFE53E2540FDE53D357E
:1087B5003FAB36AA37A9388D82F583EF12813C0588
:1087C50040E54070B6053F80B2AE3DAF3EAB33AA43
:1087D50034A93512823EE9253CF9EA353BFAC3E96D
:1087E5009FF9EA9EFAC003C002C001AB33AA34A9BF
:1087F5003590000612828EAB33E535240BF9E4354E
:1088050034FA12815EC3953CFFE5F0953B8FF0127B
:08881500820ED2AFAE3BAF3C76
:01881D002238
:10952800907FD6E030E712E04401F07F147E00120D
:0A95380094BC907FD6E054FEF022B0
:10950700907FD6E04480F0438701000000000022EE
:0793B000907FD6E04408F0B5
:0393B700E4F531A9
:0493BA00E054FBF090
:0393BE00E4F531A2
:1093C100E04408F0300604E04402F07FDC7E051240
:1093D10094BC907F92E030E3077FDC7E051294BC61
:1093E100907FAB74FFF0907FA9F0907FAAF053912A
:0893F100EF907FD6E054F7F085
:0393F900E4F53167
:0593FC00E04404F02232
:1094BC008E3B8F3C907F92E030E30BE53C25E0F552
:1094CC003CE53B33F53BE53C153CAE3B7002153BB4
:0994DC004E600512951780EE2286
:02949000A9072A
:10949200AE19AF1A8F828E83A3E064037017AD01F9
:1094A20019ED7001228F828E83E07C002FFDEC3E4D
:0994B200FEAF0580DF7E007F00A3
:0194BB00228E
:10944E00E4FEAC17AD188D828C83A3E06402702D00
:10945E00AB060EEBB50705AF05AE04228D828C83ED
:10946E00A3A3E0F53CA3E0F53D623CE53C623DE59F
:10947E003D623C2DFBE53C3CFCAD0380C97E007F8C
:01948E0000DD
:01948F0022BA
:109517007400F58690FDA57C05A3E582458370F967
:019527002221
:030000000292BBAE
:0C92BB00787FE4F6D8FD75814002930234
:10800000E709F608DFFA8046E709F208DFFA803E62
:1080100088828C83E709F0A3DFFA8032E309F6084F
:10802000DFFA8078E309F208DFFA807088828C83B7
:10803000E309F0A3DFFA806489828A83E0A3F6086B
:10804000DFFA805889828A83E0A3F208DFFA804C45
:1080500080D280FA80C680D4806980F2803380101C
:1080600080A680EA809A80A880DA80E280CA803385
:1080700089828A83ECFAE493A3C8C582C8CCC583FD
:10808000CCF0A3C8C582C8CCC583CCDFE9DEE780CD
:108090000D89828A83E493A3F608DFF9ECFAA9F04C
:1080A000EDFB2289828A83ECFAE0A3C8C582C8CCA2
:1080B000C583CCF0A3C8C582C8CCC583CCDFEADEBB
:1080C000E880DB89828A83E493A3F208DFF980CC1D
:1080D00088F0EF60010E4E60C388F0ED2402B40416
:1080E0000050B9F582EB2402B4040050AF232345BD
:0680F00082239080507312
:1080F600BB010689828A83E0225002E722BBFE0288
:09810600E32289828A83E49322BA
:10810F00BB010CE58229F582E5833AF583E0225025
:10811F0006E92582F8E622BBFE06E92582F8E2226F
:0D812F00E58229F582E5833AF583E4932289
:10813C00F8BB010DE58229F582E5833AF583E8F079
:10814C00225006E92582C8F622BBFE05E92582C825
:02815C00F2220D
:10815E00BB010A89828A83E0F5F0A3E022500687EC
:10816E00F009E71922BBFE07E3F5F009E3192289AE
:0B817E00828A83E493F5F074019322E1
:10818900BB0110E58229F582E5833AF583E0F5F034
:10819900A3E0225009E92582F886F008E622BBFE11
:1081A9000AE92582F8E2F5F008E222E5832AF58357
:0881B900E993F5F0A3E993221C
:1081C100BB010DC58229C582C5833AC5830282E7F9
:1081D1005011C58229F808E5F026F618F5F0E58278
:1081E10036F622BBFE11C58229F808E225F0F5F02A
:1081F100F218E23582F222F8E58229F582E5832A36
:0D820100F58374019325F0F5F0E493382225
:10820E00BB010A89828A83F0E5F0A3F0225006F7BB
:0F821E0009A7F01922BBFE06F3E5F009F31922B8
:10822D00EB9FF5F0EA9E42F0E99D42F0E89C45F0A7
:01823D00221E
:10823E00BB010789828A8302830F5005E9F8028207
:10824E00FDBBFE05E9F802832189828A830283330E
:10825E00BB010DE58229F582E5833AF58302830F92
:10826E005007E92582F80282FDBBFE07E92582F858
:10827E00028321E58229F582E5833AF58302833371
:10828E00BB0120E58229F582E5833AF583D0F0D053
:10829E00E0F8D0E0F9D0E0FAD0E0FBE8C0E0C0F0C2
:1082AE000283185018E92582F8D083D082D0E0F9E5
:1082BE00D0E0FAD0E0FBC082C083028306BBFE187A
:1082CE00E92582F8D083D082D0E0F9D0E0FAD0E070
:0982DE00FBC082C08302832A2246
:1095F700E4FFFE1280F6600C0FEF70010E09E970B0
:05960700F20A80EF22D1
:108C1B00C582F95179C58322911BC0E0E0A351AB0A
:108C2B00D8FA8982D083416E911BC0E0E493A351A3
:108C3B00ABD8F980EDF9E70951ABD8FA416E911B2E
:0A8C4B00C0E0E8F080DCF6416E00A6
:1092C700028C55E493A3F8E493A34003F68001F2DC
:1092D70008DFF48029E493A3F85407240CC8C333A8
:1092E700C4540F4420C8834004F456800146F6DF77
:1092F700E4800B01020408102040809095E2E47E90
:10930700019360BCA3FF543F30E509541FFEE4936B
:10931700A360010ECF54C025E060A840B8E493A332
:10932700FAE493A3F8E493A3C8C582C8CAC583CA5D
:10933700F0A3C8C582C8CAC583CADFE9DEE780BE15
:0195F6000074
:1082E700C5F0F8A3E028F0C5F0F8E5821582700222
:0682F7001583E038F022BF
:0982FD00E6FB08E6FA08E6F922A6
:09830600EBF608EAF608E9F6229C
:09830F00E0FBA3E0FAA3E0F9226F
:09831800EBF0A3EAF0A3E9F02266
:09832100E2FB08E2FA08E2F9228D
:09832A00EBF208EAF208E9F22284
:0C833300E493FB740193FA740293F922A6
:00000001FF
