:0F0BD900312E302E305F4853004552524F52009C
:050C0D000317FF0BD9E5
:10093400E4F5A890E60174EBF075B67C90E600E06F
:1009440054E74410F090E60274BCF000000090E616
:10095400037405F000000090E6097423F000000021
:1009640012041C43B13490E6687403F090E650041A
:10097400F000000090E65E7480F0D2ACD2AF75A8AF
:100984000143E80543B1087F017E001209ED53B12C
:02099400F72248
:10041C0090E60B7403F000000090E61574E0F00019
:10042C00000090E69C7480F000000090E69DF000C7
:10043C00000090E604F00000007408F0000000E4F6
:10044C00F000000090E61B740CF000000090E680B9
:10045C00E030E70F90E6267402F0000000E490E62E
:10046C0027800DE490E626F000000090E62774400B
:10047C00F000000090E61474A2F000000090E60476
:10048C007480F00000007406F0000000E4F000003E
:10049C000090E61AF000000090E6497486F0000027
:1004AC0000F000000090E61374A0F000000090E64D
:1004BC00047480F00000007404F0000000E4F0000C
:1004CC00000090E6497484F0000000F000000090F9
:1004DC00E6197410F000000090E61274E2F00000CF
:1004EC000090E6047480F00000007402F00000003C
:1004FC00E4F000000090E618F000000090E6327482
:10050C0080F000000090E6337401F000000090E6EB
:10051C003074C0F000000090E6317401F00000006F
:01052C0022AC
:0106FF0022D8
:020C1700D322E6
:020C1900D322E4
:020C1B00D322E2
:080BFD0090E6BAE0F51AD322DC
:100BB50090E740E51AF0E490E68AF090E68B04F0C1
:020BC500D32239
:080C050090E6BAE0F516D322D7
:100BC70090E740E516F0E490E68AF090E68B04F0B3
:020BD700D32227
:020C1D00D322E0
:020C1F00D322DE
:020C2100D322DC
:020C2300D322DA
:100B4400C0E0C083C082D2015391EF90E65D74018E
:080B5400F0D082D083D0E03222
:100B7400C0E0C083C0825391EF90E65D7404F0D06E
:060B840082D083D0E032B4
:100B8A00C0E0C083C0825391EF90E65D7402F0D05A
:060B9A0082D083D0E0329E
:100A7000C0E0C083C08285100C85110D850D828574
:100A80000C83A37402F085080E85090F850F8285FB
:100A90000E83A37407F05391EF90E65D7410F0D0CD
:060AA00082D083D0E03299
:100B5C00C0E0C083C082D2035391EF90E65D74086D
:080B6C00F0D082D083D0E0320A
:100A3300C0E0C083C08290E680E030E72085080CE8
:100A430085090D850D82850C83A37402F085100E34
:100A530085110F850F82850E83A37407F05391EFE1
:0D0A630090E65D7420F0D082D083D0E032A8
:010C2500329C
:010C2600329B
:010C2700329A
:010C28003299
:010C29003298
:010C2A003297
:010C2B003296
:010C2C003295
:010C2D003294
:100B2500C0E0C083C08243B10800000053B1F75351
:0F0B350091EF90E65F7480F0D082D083D0E032F1
:010C2E003293
:010C2F003292
:010C30003291
:010C31003290
:010C3200328F
:010C3300328E
:010C3400328D
:010C3500328C
:010C3600328B
:010C3700328A
:010C38003289
:010C39003288
:1006B800C0E0C0F0C083C082C0D075D000C000C008
:1006C80001C002C003C004C005C006C0071208C3A9
:1006D8005391BF90E6517404F0000000D007D00693
:1006E800D005D004D003D002D001D000D0D0D08221
:0706F800D083D0F0D0E03206
:010C3A003287
:010C3B003286
:010C3C003285
:010C3D003284
:010C3E003283
:010C3F003282
:010C40003281
:010C41003280
:010C4200327F
:010C4300327E
:010C4400327D
:010C4500327C
:010C4600327B
:1008C30000000090F000E0752100F5220000009088
:1008D300E6487482F000000053B1FBE521702AE57D
:1008E30022245F702490E6A7E020E1F90000009045
:1008F300F000E0752100F52200000090E6487482C4
:10090300F000000012052D80031207A890E6A7E06F
:1009130020E11A00000090F000E0752100F52200AC
:10092300000090E6487482F000000080DF43B104C9
:0109330022A1
:10052D00AB17AA18A919120BA08E238F2400000057
:10053D0090E6047480F00000007406F0000000E402
:10054D00FFFEC3EF9524E5236480F8EE6480985098
:10055D0024AB17AA18A9198F828E83120996FD74E0
:10056D00002FF58274F83EF583EDF00000000FBF0B
:10057D0000010E80CD74002524F58274F83523F525
:10058D0083E4F000000090E680E0C41313135401DF
:10059D00FF74012524F58274F83523F583EFF000FF
:1005AD000000E490E698F0000000E524240290E6B7
:1005BD0099F000000090E6497486F0000000E49088
:0605CD00E604F00000004E
:0105D3002205
:1007A8007BFF7A0B79E28B258A268927120BA08E8C
:1007B800238F2400000090E6047480F00000007489
:1007C80006F0000000E4FFFEC3EF9524E5236480F3
:1007D800F8EE6480985024AB25AA26A9278F828E2C
:1007E80083120996FD74002FF58274F83EF583EDA7
:1007F800F00000000FBF00010E80CD74002524F525
:100808008274F83523F583E4F000000090E698F050
:10081800000000E5240490E699F000000090E64905
:0E0828007486F0000000E490E604F00000008A
:01083600229F
:0A0BF30000010202030304040505DB
:1002B700E4F533F532F531F530C203C200C202C2AC
:1002C700011209347E077F008E0A8F0B751207759E
:1002D700131275080775091C75100775114A7514EF
:1002E70007751578EE54C070030203B675340075B0
:1002F70035808E368F37C374A69FFF74079ECF2431
:1003070002CF3400FEE48F2F8E2EF52DF52CF52B22
:10031700F52AF529F528AF2FAE2EAD2DAC2CAB2B3A
:10032700AA2AA929A828C31209C35031AE2AAF2B7C
:10033700E5372FF582E5363EF583E0FDE5352FF508
:1003470082E5343EF583EDF0EF2401F52BE43EF52D
:100357002AE43529F529E43528F52880B985340AB2
:1003670085350B74002480FF740734FFFEC3E51343
:100377009FF513E5129EF512C3E50D9FF50DE50CEC
:100387009EF50CC3E50F9FF50FE50E9EF50EC3E531
:10039700099FF509E5089EF508C3E5119FF511E5E5
:1003A700109EF510C3E5159FF515E5149EF514D2BB
:1003B700E843D82090E668E04409F090E65CE04422
:1003C7003DF0D2AF90E680E020E105D204120AA604
:1003D70090E680E054F7F0538EF8C2031206FF3020
:1003E7000105120080C2013003F2120C1750EDC252
:1003F70003120B0020001690E682E030E704E020AD
:10040700E1EF90E682E030E604E020E0E41205D474
:05041700120C1980C762
:0B0BE80090E50DE030E402C322D322B0
:1000800090E6B9E0700302013F1470030201BC2442
:10009000FE700302023F24FB700302013914700357
:1000A00002013314700302012714700302012D248E
:1000B0000560030202A3120C1B40030202AF90E68C
:1000C000BBE024FE602714603824FD601114602713
:1000D00024067050E50A90E6B3F0E50B803C120B65
:1000E000E8503EE51290E6B3F0E513802DE50C9064
:1000F000E6B3F0E50D8023E50E90E6B3F0E50F8062
:100100001990E6BAE0FF120AD5AA06A9077B01EA10
:10011000494B600DEE90E6B3F0EF90E6B4F00202CA
:10012000AF02029E02029E120BC70202AF120C0522
:100130000202AF120BFD0202AF120BB50202AF12A8
:100140000C1D40030202AF90E6B8E0247F60151456
:10015000601924027063A200E43325E0FFA202E4E8
:10016000334F8041E490E740F0803F90E6BCE0549C
:100170007EFF7E00E0D394807C0040047D018002FD
:100180007D00EC4EFEED4F24F3F582740B3EF583BB
:10019000E493FF3395E0FEEF24A1FFEE34E68F8277
:1001A000F583E0540190E740F0E4A3F090E68AF094
:1001B00090E68B7402F00202AF02029E120C1F4006
:1001C000030202AF90E6B8E024FE6016240260034A
:1001D0000202AF90E6BAE0B40105C2000202AF022B
:1001E000029E90E6BAE0705590E6BCE0547EFF7E39
:1001F00000E0D394807C0040047D0180027D00EC0F
:100200004EFEED4F24F3F582740B3EF583E493FF2D
:100210003395E0FEEF24A1FFEE34E68F82F583E014
:1002200054FEF090E6BCE05480131313541FFFE01B
:10023000540F2F90E683F0E04420F08072805F122C
:100240000C21506B90E6B8E024FE60192402704E39
:1002500090E6BAE0B40104D200805490E6BAE064BB
:1002600002604C803990E6BCE0547EFF7E00E0D313
:1002700094807C0040047D0180027D00EC4EFEED08
:100280004F24F3F582740B3EF583E493FF3395E03E
:10029000FEEF24A1FFEE34E68F82F583800D90E619
:1002A000A08008120C23500790E6A0E04401F090D3
:0602B000E6A0E04480F02E
:0102B6002225
:03003300020C13A9
:040C130053D8EF3291
:100700001201000200000040440F20EF000001022F
:1007100000010A06000200000040010009022E004C
:1007200001010080320904000004FF0000000705F9
:10073000820200020007050402000200070506020B
:100740000002000705880200020009022E000101D4
:100750000080320904000004FF0000000705820247
:1007600040000007050402400000070506024000A3
:10077000000705880240000004030904120350002A
:100780006F006C00680065006D0075007300180351
:10079000500061007400720069006F007400200056
:0807A00032002E0030000000C1
:03004300020600B2
:03005300020600A2
:10060000020B4400020B8A00020B7400020B5C0018
:10061000020A7000020A3300020C2500020C2600B8
:10062000020C2700020C2800020C2900020C2A00F0
:10063000020C2B00020C2C00020C2D00020B2500DA
:10064000020C2E00020C2600020C2F00020C3000BF
:10065000020C3100020C3200020C3300020C340098
:10066000020C3500020C2600020C2600020C2600AB
:10067000020C3600020C3700020C3800020C390064
:100680000206B800020C3A00020C3B00020C3C00CF
:10069000020C3D00020C3E00020C3F00020C400028
:1006A000020C4100020C4200020C4300020C440008
:0806B000020C4500020C46009B
:1005D40090E682E030E004E020E60B90E682E03032
:1005E400E119E030E71590E680E04401F07F147EE5
:0C05F400001209ED90E680E054FEF022B9
:100AA60030040990E680E0440AF0800790E680E092
:100AB6004408F07FDC7E051209ED90E65D74FFF0D8
:0F0AC60090E65FF05391EF90E680E054F7F02256
:1009ED008E388F3990E600E054187012E5392401E5
:1009FD00FFE43538C313F538EF13F539801590E65C
:100A0D0000E05418FFBF100BE53925E0F539E53846
:100A1D0033F538E5391539AE38700215384E6005A5
:060A2D00120B1480EE2202
:020AD500A9076F
:100AD700AE14AF158F828E83A3E064037017AD0148
:100AE70019ED7001228F828E83E07C002FFDEC3E92
:080AF700FEAF0580DFE4FEFF05
:010AFF0022D4
:100B000090E682E044C0F090E681F0438701000067
:040B100000000022BF
:100B14007400F58690FDA57C05A3E582458370F9F4
:010B240022AE
:03000000020837BC
:0C083700787FE4F6D8FD75813902087E58
:10099600BB010CE58229F582E5833AF583E0225016
:1009A60006E92582F8E622BBFE06E92582F8E22260
:0D09B600E58229F582E5833AF583E493227A
:1009C300EB9FF5F0EA9E42F0E99D42F0E89C45F08A
:0109D3002201
:100BA000E4FFFE1209D4600C0FEF70010E09E9702A
:050BB000F20A80EF22B3
:100843000202B7E493A3F8E493A34003F68001F212
:1008530008DFF48029E493A3F85407240CC8C333B6
:10086300C4540F4420C8834004F456800146F6DF85
:10087300E4800B0102040810204080900C0DE47EFC
:10088300019360BCA3FF543F30E509541FFEE4937A
:10089300A360010ECF54C025E060A840B8E493A341
:1008A300FAE493A3F8E493A3C8C582C8CAC583CA6C
:1008B300F0A3C8C582C8CAC583CADFE9DEE780BE24
:010C120000E1
:1009D400BB010689828A83E0225002E722BBFE0221
:0909E400E32289828A83E4932254
:00000001FF
