:03004300028B002D
:03005300028B809D
:108B0000028ED200028F4800028F3200028EEA00ED
:108B1000028F5E00028AFF00028FEE00028FEF00DC
:108B2000028FF000028FF100028FF200028F02002C
:108B3000028FF300028FF400028FF500028FF6001F
:108B4000028FF700028FF800028FF900028F1A00DF
:088B5000028FFA00028FFB0006
:108B8000028FFC00028FFD00028FFF00028FFE00AB
:108B90000290000002900100029002000290030087
:108BA0000290040002900500029006000290070067
:0B8BB000029008000290090002900AE9
:1084B200E4F52DF52CF52BF52AC20AC207C209C232
:1084C2000812895D7E8B7FBB8E1A8F1B751C8B7584
:1084D2001DCD751E8B751FF4EE54E070030285BE30
:1084E200752E00752F808E308F31C3741A9FFF74E2
:1084F2008C9ECF2402CF3400FEE48F298E28F527EC
:10850200F526F525F524F523F522AF29AE28AD276A
:10851200AC26AB25AA24A923A822C312892C502653
:10852200E52F2525F582E52E3524F58374CDF0E57A
:10853200252401F525E43524F524E43523F523E447
:108542003522F52280C4E4F525F524F523F522AF82
:1085520029AE28AD27AC26AB25AA24A923A822C37D
:1085620012892C5031AE24AF25E5312FF582E5304A
:108572003EF583E0FDE52F2FF582E52E3EF583EDF6
:10858200F0EF2401F525E43EF524E43523F523E458
:108592003522F52280B9852E1A852F1B74BB2480C3
:1085A200FF748B34FFFEC3E51D9FF51DE51C9EF590
:1085B2001CC3E51F9FF51FE51E9EF51ED2E843D89A
:1085C20020907F95E044C0F0907FAFE04401F090AE
:1085D2007FAEE0441DF0D2AF200841200805D20B47
:1085E200128C7AE4F52DF52CF52BF52A7F407E923C
:1085F2007D047C00AB2DAA2CA92BA82AC312892C9E
:1086020050D62008D3E52D2401F52DE4352CF52C88
:10861200E4352BF52BE4352AF52A80D0538EF83039
:108622000805128000C208300A1A128AF45015C2D4
:108632000A128E5A200707907FD6E020E7F3128EA7
:10864200B8128AFD20AC1030980DE59964A560043B
:0C865200C298800312847012865E80C300
:10800000907FE9E070030281751470030281E0241F
:10801000FE700302824724FB700302816F14700319
:1080200002816914700302815D147003028163246C
:1080300005600302828C128FE44003028298907FD5
:10804000EBE024FE601414603A2402600302815ABB
:10805000E51A907FD4F0E51B801F907FEAE0FF12C5
:108060008D12AA06A9077B018B328A338934EA492B
:108070004B600DEE907FD4F0EF907FD5F0028298A8
:10808000028291907FEAE0FF128DBFAA06A9077BCA
:0F809000018B328A338934EA494B7003028157DE
:10809F00AB328B398A3A893B1288E6F53C907FEEFA
:1080AF00E0FFE53CD39F4003E0F53CE53C70030265
:1080BF00814CE4F538F537F536F535E53CC394409A
:1080CF005004AF3C80027F40E4FCFDFEAB38AA3782
:1080DF00A936A835C312892C5032E53B2538F582D5
:1080EF00E53A3537F583E0FF74002538F582E4343F
:1080FF007FF583EFF0E5382401F538E43537F537B0
:10810F00E43536F536E43535F53580AFE53CC394C7
:10811F00405004AF3C80027F40907FB5EFF0E53CCC
:10812F00C394405004AF3C80027F40C3E53C9FF5B1
:10813F003C907FB4E020E2030280BA80F4E4907FA9
:05814F00B5F0907FB4C3
:108154000281D7028291028291128F970282981231
:108164008FCA028298128FC2028298128F89028269
:1081740098128FE64003028298907FE8E0247F60A3
:108184001F14602824027051A207E43325E0FFA2E3
:1081940009E4334F907F00F0E4A3F0907FB580337F
:1081A400E4907F00F0A3F0907FB58027907FECE00F
:1081B400F45480C4540FFFE054072F25E024B4F591
:1081C40082E4347FF583E05401907F00F0E4A3F06F
:1081D400907FB57402F0028298028291128FE84077
:1081E40003028298907FE8E024FE60162402600374
:1081F400028298907FEAE0B40105C20702829802E5
:108204008291907FEAE07039907FECE0F45480C46E
:10821400540FFFE054072F25E024B4F582E4347FA3
:10822400F583E4F0907FECE05480131313541FFFA4
:08823400E054072F907FD7F002
:03823C00E4F5392D
:10823F00E04420F08053804A128FEA504C907FE840
:10824F00E024FE601124027040907FEAE0B4010444
:10825F00D2078035802C907FEAE0701F907FECE092
:10826F00F45480C4540FFFE054072F25E024B4F5D5
:10827F0082E4347FF5837401F0800E8005128FEC59
:10828F005007907FB4E04401F0907FB4E04402F0D7
:01829F0022BC
:03003300028FE059
:048FE00053D8EF3241
:108BBB001201000100000040440F12EF0100000001
:108BCB00000109022700010100A0000904000003B5
:108BDB00FF0000000705820240000007050202406B
:108BEB0000000705060208000004030904120350E5
:108BFB00006F006C00680065006D0075007300105D
:108C0B0003500041005400520049004F0054000033
:018C1B000058
:030023000282A0B6
:1082A000C0D0C0E075D000C000C00120984F78FF5A
:1082B0008600B8FF2974F73099FDC299F599D0016D
:1082C0007805D0E07108D8FAE9710851D6C0E051BC
:1082D000D6C0E051D6F83098FDE599C29822E581E4
:1082E00024FCF9800C0819E66708097004E6676049
:1082F000C4B8FEF1D001D000D0E0D0D032E599C2B0
:1083000098B4A5F0D29980AD3099FDC299F5992223
:108310008882F58341CB8881F5F041CBF58041CB54
:10832000F5B041CBE581C083C082C08EC0F0C0E013
:10833000C0E041B7E589C088C087C086C085C084D9
:10834000C08041B7E590C08FC08EC08DC08CC08BFF
:10835000C08A41B7E597C096C095C094C093C092BB
:10836000C09141B7E59EC09DC09CC09BC09AC0997A
:10837000C09841B7E5A5C0A4C0A3C0A2C0A1C0A039
:10838000C09F41B7E5ACC0ABC0AAC0A9C0A8C0A7F8
:10839000C0A641B7E5B3C0B2C0B1C0B0C0AFC0AEB7
:1083A000C0AD41B7E5BAC0B9C0B8C0B7C0B6C0B576
:1083B000C0B441B7E5C1C0C0C0BFC0BEC0BDC0BC35
:0483C000C0BB41B746
:1083C400E5C8C0C7C0C6C0C5C0C4C0C3C0C241B7E9
:1083D400E5CFC0CEC0CDC0CCC0CBC0CAC0C941B7A8
:1083E400E5D7C0D6C0D5C0D4C0D3C0D2C0D141B760
:1083F400E5DEC0DDC0DCC0DBC0DAC0D9C0D841B71F
:10840400E5E6C0E5C0E4C0E3C0E2C0E1C0DF41B7D7
:10841400E5EDC0ECC0EBC0EAC0E9C0E8C0E741B795
:10842400E5F5C0F4C0F3C0F2C0F1C0EFC0EE41B74F
:10843400E5FCC0FBC0FAC0F9C0F8C0F7C0F641B70C
:10844400E5FFC0FEC0FDC0E0C0E0C0E0C0E041B751
:10845400C0E051D6C0E051D6C0E051D6F951D6C0E3
:10846400E0C00078FFE67002C29941F678FF76FF1B
:04847400D2AC220064
:088FD200312E302E300050005A
:108E14000509FF525A56FF041000000000C104C1A6
:108E240081C10042500556524250005A56435002E6
:038E3400FF8FD2DB
:10895D00907FDE7404F0907FDF7444F0907FADE083
:10896D004404F0907FDD7401F0E4907F96F0907FE9
:10897D0097F0907F98F0907841F0907845F0907F47
:10898D009C7410F0E4907F9DF0907F9E7434F0E421
:10899D00907843F09078477438F090784A7403F0EB
:1089AD00907F9474FFF0907F957443F0E490784B32
:1089BD00F090784CE0E4F0907F98E04410F09078DF
:1089CD0045E054DFF0E490780AF0907818F0907854
:1089DD001C7420F090781D7401F09078027481F071
:1089ED009078037485F0E4907810F0907811F09001
:1089FD007807F0907808F0907815F0907816F09050
:108A0D00780BF0907819F090780C74FFF090781A3C
:108A1D00F0E490781EF0F5A8F5B8F591F5D8F5E8E5
:108A2D00F5F8907F92F0758933F588F5C890784503
:108A3D00E04420F0128E38E4F516F50EF50FF5181A
:108A4D00F517D203C202F514F515C206C205128E32
:0B8A5D007B128FDA9078137420F02257
:10865E00300503128C1C300403128D54907806E002
:10866E00C394024003128E9A907801E0702A200380
:10867E0027128FDAE4F532F533907801E0600302C9
:10868E0087EF0533E533AE327002053214D3940A08
:10869E00EE6480948040E222907801E070030287BD
:1086AE00B1907FB8E030E1030287B130036D90786E
:1086BE0001E0C394045026128FDAE4F532F53390BC
:1086CE007801E0C3940450150533E533AE327002E1
:1086DE00053214940AEE6480948040E32290780070
:1086EE00E0FF905000E0FEEF6E60030287EF90789F
:1086FE0000E0FF905001E0FEEF6E60030287EF9006
:10870E007800E0751400F515751500F514E04215A6
:10871E00E515451470030287EFC203907FB8E02081
:10872E00E15B907801E06055C3E50F9515E51464A3
:10873E0080F8E50E6480985044907800E0FFAE1704
:10874E00051774002EF582E4347EF583EFF0050FE5
:10875E00E50F7002050EE517B440C0907FB9744066
:10876E00F0E4F517E50FB515B2E50EB514AD128FA1
:10877E00A5D203E4F50EF50FF514F51522C3E50F9A
:10878E009515E5146480F8E50E6480984053D20385
:10879E00E4F50EF50FF514F515907FB9E517F0E435
:1087AE00F5172230063B907FB8E020E134781012A6
:1087BE00893DE47B107A27F9F8C312892C50227870
:1087CE00007C7E7D017B007A0079097E007F051298
:1087DE0088C0907FB97405F0E4F513F512F511F524
:0187EE00107A
:0187EF002267
:068FDA00128FB2028FBAF3
:108C1C00907FC9E0C39518F534128FB2907FC8E0ED
:108C2C0020E14890780FE0FFC374409FC395345007
:108C3C0009E0FFC374409FFF8002AF34E4FEEEC333
:108C4C009F5014E5182E24C0F582E4347DF583E0A2
:108C5C0090780EF00E80E7EFB5340BE4907FC9F0FE
:0E8C6C00C205F5188005EF2518F518028FBA1D
:068D8E008B348A358936A2
:108D9400128FB2AB34AA35A936128F74E4FEEEC337
:108DA4009F5015AB34AA35A9368E8275830012887C
:0B8DB400FF90780EF00E80E6028FBAF0
:088FB200907F98E04420F022BA
:088FBA00907F98E054DFF022E3
:108E7B00907801E06008907800E0F53480F2128F72
:0E8E8B00DA7F327E00128DEB907801E070E20B
:018E990022B6
:108D5400907FD0E020E132907BC0E0FF24F36010EC
:108D640004701F7BFF7A8F79D8128D8ED206801201
:108D7400C206128E7BD203E4F50EF50FF514F51539
:098D8400F517E4907FD1F0C20460
:018D8D0022C3
:108E9A00907805E0F534E0FF905005E0B53408A37A
:0D8EAA00E0B50703028CCB907813E534F09F
:018EB7002298
:108CCB00905002E0FBA3E0FAA3E0F9128F748E350B
:108CDB008F36E4FFFEC3EF9536E5356480F8EE641E
:108CEB008098501D905002E0FBA3E0FAA3E0F98FAF
:108CFB00828E831288FF907813F00FBF00010E80D5
:068D0B00D4E4907813F09F
:018D1100223F
:0D8FA500907FB8E020E1F9E4907FB9F02260
:108E3800E4F598D29EC298C299D29CC2CAF5C8D20B
:108E4800CDD2CC75CBFF75CDFF75CAD975CCD9D22B
:028E5800CA222C
:098AF400907FAFE04408F0D322AA
:028AFD00D32282
:028FE400D32296
:088FC200907FEAE0F519D322CB
:0E8F8900907F00E519F0907FB57401F0D322BF
:088FCA00907FEAE0F508D322D4
:0E8F9700907F00E508F0907FB57401F0D322C2
:028FE600D32294
:028FE800D32292
:028FEA00D32290
:028FEC00D3228E
:108ED200C0E0C083C082D2085391EF907FAB74018F
:088EE200F0D082D083D0E03211
:108F3200C0E0C083C0825391EF907FAB7404F0D045
:068F420082D083D0E03272
:108F4800C0E0C083C0825391EF907FAB7402F0D031
:068F580082D083D0E0325C
:108F5E00C0E0C083C0825391EF907FAB7410F0D00D
:068F6E0082D083D0E03246
:018AFF003244
:108EEA00C0E0C083C082D20A5391EF907FAB74086E
:088EFA00F0D082D083D0E032F9
:018FEE003250
:018FEF00324F
:018FF000324E
:018FF100324D
:018FF200324C
:108F0200C0E0C083C082D2055391EF907FAA74045F
:088F1200F0D082D083D0E032E0
:018FF300324B
:018FF400324A
:018FF5003249
:018FF6003248
:018FF7003247
:018FF8003246
:018FF9003245
:108F1A00C0E0C083C082D2045391EF907FAA74400C
:088F2A00F0D082D083D0E032C8
:018FFA003244
:018FFB003243
:018FFC003242
:018FFD003241
:018FFE003240
:018FFF00323F
:01900000323D
:01900100323C
:01900200323B
:01900300323A
:019004003239
:019005003238
:019006003237
:019007003236
:019008003235
:019009003234
:01900A003233
:108EB800907FD6E030E712E04401F07F147E001284
:0A8EC8008DEB907FD6E054FEF022FF
:108E5A00907FD6E04480F0438701000000000022A2
:078C7A00907FD6E04408F0F2
:038C8100E4F532E5
:048C8400E054FBF0CD
:038C8800E4F532DE
:108C8B00E04408F0300B04E04402F07FDC7E051278
:108C9B008DEB907F92E030E3077FDC7E05128DEB4E
:108CAB00907FAB74FFF0907FA9F0907FAAF0539167
:088CBB00EF907FD6E054F7F0C2
:038CC300E4F532A3
:058CC600E04404F0226F
:108DEB008E358F36907F92E030E30BE53625E0F53C
:108DFB0036E53533F535E5361536AE3570021535B6
:098E0B004E6005128E6A80EE2211
:028DBF00A90702
:108DC100AE1EAF1F8F828E83A3E064037017AD01C7
:108DD10019ED7001228F828E83E07C002FFDEC3E25
:098DE100FEAF0580DF7E007F007B
:018DEA002266
:108D1200E4FEAC1CAD1D8D828C83A3E06402702D39
:108D2200AB060EEBB50705AF05AE04228D828C8330
:108D3200A3A3E0F53DA3E0F53E623DE53D623EE5DD
:108D42003E623D2DFBE53D3CFCAD0380C97E007FCC
:018D52000020
:018D530022FD
:108E6A007400F58690FDA57C05A3E582458370F91B
:018E7A0022D5
:03000000028A6809
:0C8A6800787FE4F6D8FD75813E028AAFED
:1087F000E709F608DFFA8046E709F208DFFA803E6B
:1088000088828C83E709F0A3DFFA8032E309F60857
:10881000DFFA8078E309F208DFFA807088828C83BF
:10882000E309F0A3DFFA806489828A83E0A3F60873
:10883000DFFA805889828A83E0A3F208DFFA804C4D
:1088400080D280FA80C680D4806980F28033801024
:1088500080A680EA809A80A880DA80E280CA80338D
:1088600089828A83ECFAE493A3C8C582C8CCC58305
:10887000CCF0A3C8C582C8CCC583CCDFE9DEE780D5
:108880000D89828A83E493A3F608DFF9ECFAA9F054
:10889000EDFB2289828A83ECFAE0A3C8C582C8CCAA
:1088A000C583CCF0A3C8C582C8CCC583CCDFEADEC3
:1088B000E880DB89828A83E493A3F208DFF980CC25
:1088C00088F0EF60010E4E60C388F0ED2402B4041E
:1088D0000050B9F582EB2402B4040050AF232345C5
:0688E00082239088407322
:1088E600BB010689828A83E0225002E722BBFE0290
:0988F600E32289828A83E49322C3
:1088FF00BB010CE58229F582E5833AF583E022502E
:10890F0006E92582F8E622BBFE06E92582F8E22277
:0D891F00E58229F582E5833AF583E4932291
:10892C00EB9FF5F0EA9E42F0E99D42F0E89C45F0A1
:01893C002218
:10893D007401FF3395E0FEFDFC080808E6CF2FF625
:10894D0018E6CE3EF618E6CD3DF618E6CC3CF622FE
:108F7400E4FFFE1288E6600C0FEF70010E09E97041
:058F8400F20A80EF225B
:10847800C582F951D6C583229178C0E0E0A371087E
:10848800D8FA8982D08341CB9178C0E0E493A37174
:1084980008D8F980EDF9E7097108D8FA41CB917845
:0A84A800C0E0E8F080DCF641CB00F4
:108A74000284B2E493A3F8E493A34003F68001F2E2
:108A840008DFF48029E493A3F85407240CC8C33303
:108A9400C4540F4420C8834004F456800146F6DFD2
:108AA400E4800B0102040810204080908E14E47EC0
:108AB400019360BCA3FF543F30E509541FFEE493C7
:108AC400A360010ECF54C025E060A840B8E493A38E
:108AD400FAE493A3F8E493A3C8C582C8CAC583CAB9
:108AE400F0A3C8C582C8CAC583CADFE9DEE780BE71
:018E3700003A
:00000001FF
